:100000000C9463000C948B000C948B000C948B006C
:100010000C948B000C948B000C948B000C948B0034
:100020000C948B000C948B000C948B000C948B0024
:100030000C948B000C948B000C948B000C948B0014
:100040000C94DD020C948B000C94AA040C94F8041C
:100050000C948B000C948B000C948B000C948B00F4
:100060000C948B000C948B000000000024002700EF
:100070002A0000000000250028002B0000000000DE
:1000800023002600290004040404040404040202DA
:100090000202020203030303030301020408102007
:1000A0004080010204081020010204081020000012
:1000B0000007000201000003040600000000000029
:1000C00000008D00640611241FBECFEFD8E0DEBF14
:1000D000CDBF11E0A0E0B1E0E8E7FEE002C005908E
:1000E0000D92A633B107D9F712E0A6E3B1E001C043
:1000F0001D92A030B107E1F710E0C6ECD0E004C0DB
:100100002297FE010E943607C23CD107C9F70E9420
:10011000BA060C943A070C940000CF92EF920F931A
:1001200088E391E06CE04BE025E004E053E0E52E4D
:1001300032E0C32E0E94A4020F91EF90CF90089559
:1001400088E391E060E142E020E00E94EE018EED64
:1001500091E040E855E260E070E00E9433058AE0FB
:1001600062E00E94C30308958AE00E9456049093BF
:10017000370180933601892BA1F488E391E00E9436
:10018000E6018EED91E06AE00E94240688E391E0AA
:1001900060E040E00E94B70188E391E060E071E038
:1001A00013C088E391E00E94E6018EED91E064E1E6
:1001B0000E94240688E391E060E040E00E94B701DD
:1001C00088E391E069E071E00E940F0762E370E06C
:1001D00080E090E00E94250308950F931F938C0107
:1001E000FC01868160E00E94020481E090E00E94B0
:1001F0007E03F801868161E00E94020481E090E0C4
:100200000E947E03F801868160E00E94020484E679
:1002100090E00E947E031F910F910895CF92DF928C
:10022000EF92FF920F931F93CF93DF93D82EC92E97
:10023000282F392FC9018C01C0E0D0E0E62EFF2421
:10024000F801878161E00E94C303B7010C2E02C050
:10025000759567950A94E2F76170F80187810E94AD
:10026000020421960F5F1F4FC830D10549F78D2D2D
:100270009C2D0E94ED00DF91CF911F910F91FF9077
:10028000EF90DF90CF900895CF92DF92EF92FF92A0
:100290000F931F93CF93DF93D82EC92E282F392F7A
:1002A000C9018C01C0E0D0E0E62EFF24F80187816F
:1002B00061E00E94C303B7010C2E02C075956795DB
:1002C0000A94E2F76170F80187810E940204219686
:1002D0000F5F1F4FC430D10549F78D2D9C2D0E9413
:1002E000ED00DF91CF911F910F91FF90EF90DF9084
:1002F000CF9008951F93CF93DF93EC01162F8C813D
:10030000642F0E9402048D818F3F19F060E00E94EB
:1003100002048F8584FF05C0CE01612F0E940E016B
:100320000EC0612F70E084E0759567958A95E1F7BE
:10033000CE010E944401CE01612F0E944401DF9151
:10034000CF911F91089541E00E947A0181E090E0F1
:10035000089540E00E947A010895FC016089862F8B
:100360008460808B6C60CF010E94A9010895DF93A7
:10037000CF93CDB7DEB728970FB6F894DEBF0FBE88
:10038000CDBF9C01FE013196ADE1B1E088E00D905A
:1003900001928150E1F7F9018389481710F0482F45
:1003A0004150E42FF0E0EE0FFF1FEC0FFD1F8181A5
:1003B000680F6068C9010E94A90128960FB6F894D9
:1003C000DEBF0FBECDBFCF91DF91089561E00E94E7
:1003D000A90180ED97E00E947E030895CF93DF93FB
:1003E000EC01423018F08F8588608F874B8B1C8A18
:1003F000222329F0413019F48F8584608F8780E5AE
:1004000093EC0E947E038C8160E00E9402048E8146
:1004100060E00E9402048D818F3F19F060E00E942D
:1004200002046F8564FD1DC0CE0163E00E9444019B
:1004300084E991E10E947E03CE0163E00E944401C1
:1004400084E991E10E947E03CE0163E00E944401B1
:1004500086E990E00E947E03CE0162E00E944401A2
:1004600016C06062CE010E94A90184E991E10E9458
:100470007E036F856062CE010E94A90186E990E04B
:100480000E947E036F856062CE010E94A9016F8584
:100490006062CE010E94A90184E0888BCE010E9497
:1004A000AD01CE010E94E60182E0898BCE0166E0BB
:1004B0000E94A901DF91CF9108956F927F928F9250
:1004C000AF92CF92EF920F931F93DF93CF93CDB75D
:1004D000DEB73C01162F842FF30144832583068366
:1004E000E782C086A18682869D8593879E859487B4
:1004F0009F8595879889968761E00E94C303F301E1
:1005000085818F3F19F061E00E94C303F30186816A
:1005100061E00E94C303112319F0F301178603C0A1
:1005200080E1F3018787C30160E141E020E00E94A0
:10053000EE01CF91DF911F910F91EF90CF90AF908F
:100540008F907F906F9008958F92AF92CF92EF929D
:100550000F931F93CF93DF93DC01362F542F722F0D
:10056000102FAE2C8C2C13961C921E92129789E1A0
:1005700091E011969C938E9300D000D0EDB7FEB71A
:100580003196CDB7DEB71982118212821382CD0166
:1005900061E0432F2FEF052FE72EC12E0E945D0251
:1005A0000F900F900F900F90DF91CF911F910F91AF
:1005B000EF90CF90AF908F9008951F920F920FB64B
:1005C0000F9211242F933F938F939F93AF93BF93D9
:1005D0008091510190915201A0915301B091540129
:1005E000309155010196A11DB11D232F2D5F2D378F
:1005F00020F02D570196A11DB11D20935501809328
:10060000510190935201A0935301B09354018091F2
:100610004D0190914E01A0914F01B0915001019672
:10062000A11DB11D80934D0190934E01A0934F01E8
:10063000B0935001BF91AF919F918F913F912F91B6
:100640000F900FBE0F901F9018959B01AC017FB7C4
:10065000F89480914D0190914E01A0914F01B0917D
:10066000500166B5A89B05C06F3F19F00196A11D0A
:10067000B11D7FBFBA2FA92F982F8827860F911DF4
:10068000A11DB11D62E0880F991FAA1FBB1F6A95AB
:10069000D1F7BC012DC0FFB7F89480914D01909126
:1006A0004E01A0914F01B0915001E6B5A89B05C045
:1006B000EF3F19F00196A11DB11DFFBFBA2FA92F61
:1006C000982F88278E0F911DA11DB11DE2E0880F84
:1006D000991FAA1FBB1FEA95D1F7861B970B885E4F
:1006E0009340C8F2215030404040504068517C4F08
:1006F000211531054105510571F60895019739F02D
:10070000880F991F880F991F02970197F1F7089595
:10071000789484B5826084BD84B5816084BD85B5DC
:10072000826085BD85B5816085BDEEE6F0E08081A3
:1007300081608083E1E8F0E01082808182608083C4
:10074000808181608083E0E8F0E080818160808347
:10075000E1EBF0E0808184608083E0EBF0E0808179
:1007600081608083EAE7F0E080818460808380811B
:1007700082608083808181608083808180688083C3
:100780001092C1000895CF93DF93482F50E0CA0123
:1007900086569F4FFC0134914A575F4FFA0184916E
:1007A000882369F190E0880F991FFC01E859FF4FF9
:1007B000A591B491FC01EE58FF4FC591D4916623E9
:1007C00051F42FB7F8948C91932F909589238C93A3
:1007D000888189230BC0623061F42FB7F8948C9123
:1007E000932F909589238C938881832B88832FBFA7
:1007F00006C09FB7F8948C91832B8C939FBFDF9199
:10080000CF910895482F50E0CA0182559F4FFC01B7
:100810002491CA0186569F4FFC0194914A575F4F1D
:10082000FA013491332309F440C0222351F12330DB
:1008300071F0243028F42130A1F0223011F514C0D9
:100840002630B1F02730C1F02430D9F404C08091B3
:1008500080008F7703C0809180008F7D809380001F
:1008600010C084B58F7702C084B58F7D84BD09C068
:100870008091B0008F7703C08091B0008F7D80930E
:10088000B000E32FF0E0EE0FFF1FEE58FF4FA591F1
:10089000B4912FB7F894662321F48C919095892315
:1008A00002C08C91892B8C932FBF0895682F70E024
:1008B000CB0182559F4FFC012491CB0186569F4F5F
:1008C000FC0144916A577F4FFB019491992319F4DD
:1008D00020E030E03CC0222351F1233071F024307D
:1008E00028F42130A1F0223011F514C02630B1F0E7
:1008F0002730C1F02430D9F404C0809180008F7774
:1009000003C0809180008F7D8093800010C084B5EB
:100910008F7702C084B58F7D84BD09C08091B000FF
:100920008F7703C08091B0008F7D8093B000892FB6
:1009300090E0880F991F84589F4FFC01A591B491B6
:100940008C9120E030E0842311F021E030E0C901F7
:10095000089508951F920F920FB60F9211242F93AE
:100960003F934F938F939F93EF93FF938091C0009A
:1009700082FD1DC04091C6002091960130919701E3
:100980002F5F3F4F2F7330708091980190919901A4
:100990002817390771F0E0919601F0919701EA5A12
:1009A000FE4F4083309397012093960102C08091BF
:1009B000C600FF91EF919F918F914F913F912F91A1
:1009C0000F900FBE0F901F901895E091EA01F091E3
:1009D000EB01E05CFF4F8191919120813181821B7D
:1009E000930B8F739070892B11F00E94A9040895C6
:1009F0001F920F920FB60F9211242F933F938F9354
:100A00009F93EF93FF932091DA013091DB01809166
:100A1000DC019091DD012817390731F48091C10084
:100A20008F7D8093C10014C0E091DC01F091DD0165
:100A3000E656FE4F20818091DC019091DD01019608
:100A40008F7390709093DD018093DC012093C6003A
:100A5000FF91EF919F918F913F912F910F900FBE3A
:100A60000F901F901895AF92BF92DF92EF92FF9276
:100A70000F931F93CF93DF93EC017A018B01DD2459
:100A8000403081EE580780E0680780E0780711F079
:100A9000DD24D39491E0A92EB12CEC89FD89DD20D1
:100AA00069F0C50108A002C0880F991F0A94E2F7F7
:100AB000808360E079E08DE390E005C0108260E81B
:100AC00074E88EE190E0A80197010E94120721507E
:100AD000304040405040569547953795279580E1E6
:100AE0002030380720F0DD2011F0DD24D6CFE88952
:100AF000F9893083EA89FB89208319A2EE89FF896D
:100B0000408121E030E0C9010C8C02C0880F991FA0
:100B10000A94E2F7482B4083EE89FF894081C9019E
:100B20000D8C02C0880F991F0A94E2F7482B40836E
:100B3000EE89FF894081C9010E8C02C0880F991F80
:100B40000A94E2F7482B4083EE89FF8980810F8C5D
:100B500002C0220F331F0A94E2F720952823208336
:100B6000DF91CF911F910F91FF90EF90DF90BF9099
:100B7000AF900895DC011C96ED91FC911D97E05C0F
:100B8000FF4F2191319180819181281B390B2F7367
:100B90003070C9010895DC011C96ED91FC911D9700
:100BA000E05CFF4F20813181E054F040DF01AE5B1B
:100BB000BF4F8D919C9111972817390719F42FEF8A
:100BC0003FEF07C08D919C91E80FF91F8081282F7E
:100BD00030E0C9010895DC011C96ED91FC911D9750
:100BE000E05CFF4F20813181E054F040DF01AE5BDB
:100BF000BF4F8D919C9111972817390719F42FEF4A
:100C00003FEF10C08D919C911197E80FF91F208143
:100C10008D919C91119701968F73907011969C9372
:100C20008E9330E0C9010895DC0191968C919197E3
:100C3000882339F05496ED91FC915597808186FF79
:100C4000F9CF91961C920895CF93DF93EC01EE8536
:100C5000FF85E05CFF4F20813181E054F0402F5F41
:100C60003F4F2F733070DF01AE5BBF4F8D919C9172
:100C7000119728173907D1F3E05CFF4F80819181EC
:100C8000E054F040E80FF91F6083EE85FF85E05CDB
:100C9000FF4F31832083EE89FF89208181E090E03E
:100CA0000F8C02C0880F991F0A94E2F7282B20832B
:100CB00081E089A3EC89FD8980818064808381E063
:100CC00090E0DF91CF9108951092E1011092E00140
:100CD00088EE93E0A0E0B0E08093E2019093E3011E
:100CE000A093E401B093E50189E291E09093DF01E4
:100CF0008093DE0186E591E09093EB018093EA0119
:100D00008AE991E09093ED018093EC0185EC90E00D
:100D10009093EF018093EE0184EC90E09093F101C9
:100D20008093F00180EC90E09093F3018093F201C6
:100D300081EC90E09093F5018093F40182EC90E0D7
:100D40009093F7018093F60186EC90E09093F9017F
:100D50008093F80184E08093FA0183E08093FB01A3
:100D600087E08093FC0185E08093FD0181E0809322
:100D7000FE010895CF93DF930E9488030E94A00094
:100D8000C5EED4E00E94B4002097E1F30E94E50490
:100D9000F9CFCF92DF92EF92FF920F931F93CF93F1
:100DA000DF937C016B018A01C0E0D0E00FC0D60167
:100DB0006D916D01D701ED91FC910190F081E02DD5
:100DC000C7010995C80FD91F015010400115110521
:100DD00071F7CE01DF91CF911F910F91FF90EF90AE
:100DE000DF90CF900895CF93DF93EC0161157105EB
:100DF00019F420E030E00FC0DB010D900020E9F78E
:100E00001197A61BB70BE881F9810280F381E02DD1
:100E1000AD0109959C01C901DF91CF9108950E9410
:100E2000F3060895A1E21A2EAA1BBB1BFD010DC0FB
:100E3000AA1FBB1FEE1FFF1FA217B307E407F5078A
:100E400020F0A21BB30BE40BF50B661F771F881F66
:100E5000991F1A9469F760957095809590959B01FC
:100E6000AC01BD01CF010895EE0FFF1F0590F49175
:080E7000E02D0994F894FFCF76
:100E78005052455353455344004E4F542050524509
:100E8800535345440000000000A301C90600004078
:100E98000014005400000000002406C906BA05EB3F
:060EA80005CB0514060055
:00000001FF
